:020000040800F2
:1000000070050020090100089D2E0008E326000865
:10001000992E0008AB050008C3310008000000005D
:10002000000000000000000000000000C92F0008D0
:10003000AF050008000000009F2E0008CB2F00082D
:10004000230100082301000823010008B92F00083C
:100050002301000823010008B1050008C7050008B6
:1000600023010008230100082301000823010008E0
:1000700023010008230100082301000823010008D0
:1000800023010008230100082301000823010008C0
:1000900023010008230100082301000823010008B0
:1000A000AB2B00082301000823010008C53000081D
:1000B0002301000823010008230100082301000890
:1000C0002301000823010008230100082301000880
:1000D0002301000823010008230100082301000870
:1000E000BB050008230100082301000823010008C4
:1000F00023010008DFF80CD000F026FA0048004782
:10010000E938000870050020064880470648004787
:10011000FEE7FEE7FEE7FEE7FEE7FEE7FEE7FEE7B7
:10012000FEE7FEE761300008F5000008D2B201E00A
:1001300000F8012B491EFBD270470022F6E710B5EC
:1001400013460A4604461946FFF7F0FF204610BD45
:1001500080EA010210B502F00043400022D04A00BC
:100160001FD0010E01EB1261C0F35600C2F356021C
:1001700040F4000042F40002A0FB022000047F399A
:10018000140400D0401C50EA124001D44000491E23
:10019000C2B20C0604EBD010401C4008802A02D0EA
:1001A00003E0002010BD20F00100002900DA00204B
:1001B000184310BD2DE9FE4F81EA030404F000440A
:1001C00021F0004100944FF0000B23F0004350EA6F
:1001D00001045ED052EA03045BD0C3F30A54C1F3B6
:1001E0000A552C44A4F2F3340194A0FB0254C1F349
:1001F000130141F48011C3F3130343F4801301FB93
:10020000024400FB034E840A970A44EA815447EAF9
:100210008357A4FB076802958D0A05FB07854FEA03
:10022000932C04FB0C542705029D4FEA065847EA1D
:100230001637B5EB08056EEB070C870E920E47EAF2
:10024000811742EA8312A7FB0201B6EB0B0164EBB4
:1002500000042B0D43EA0C335E1844EB1C50DA46C5
:100260005146E7FB0201C5F313044FEA0B3343EA9F
:1002700014534FEA0432019C43EA0603A4F10C0430
:100280000294009CCDE900B400F00FF903B0BDE882
:10029000F08F00200146F9E72DE9F04D81EA0304D3
:1002A00004F0004B21F0004514464FF0000A23F003
:1002B000004150EA050220D054EA01021DD0C5F3E6
:1002C0000A570246C5F31303C1F31300C1F30A56DC
:1002D00040F4801543F48013A7EB0608101BD646A4
:1002E00008F2FD3873EB050002D308F1010801E0C4
:1002F00092185B41B8F1000F03DA00200146BDE817
:10030000F08D00204FF48011064684460EE0171B46
:1003100073EB050705D3121B63EB050306434CEA99
:10032000010C49084FEA300092185B4150EA01077E
:10033000EDD152EA030012D082EA040083EA0501FB
:10034000084305D0101BAB4106D20122002306E072
:1003500000224FF0004302E06FF0010253101AEB4D
:1003600006004CEB085110EB0A0041EB0B01BDE815
:10037000F04D00F08BB80EB5C10F80EAE070084474
:10038000CA07002140F233438DE80E000A460B46AF
:1003900000F08BF803B000BD20F00040C10DC0F3A9
:1003A000160040F400007F2901DA002070479629EA
:1003B00003DCC1F19601C840704796398840704708
:1003C00000F0004230F000400AD0C10D01F560712C
:1003D000C0F3160042EA0151C208400711437047BA
:1003E00000200146704701F0004330B421F0004185
:1003F00050EA010206D00A0DA2F56072C1F31301A2
:10040000002A02DC30BC00207047440F44EAC104DB
:10041000C100E01830BC00EBC250AFF300800029EF
:10042000A8BF7047401C490008BF20F0010070477A
:1004300010B4B0FA80FC00FA0CF050EA010404BFDA
:1004400010BC704749B1CCF1200421FA04F411FA30
:100450000CF118BF012121430843A3EB0C01CB1D74
:100460004FEA00614FEA102042BF002010BC7047E5
:1004700000EBC35010440029A4BF10BC7047401CBF
:10048000490008BF20F0010010BC704710B5141ED1
:1004900073F1000408DA401C41F1000192185B413D
:1004A0001A4301D120F0010010BD2DE9F04D924614
:1004B0009B4611B1B1FA81F202E0B0FA80F220322B
:1004C000904600F053F804460F4640EA0A0041EA1D
:1004D0000B0153465A46084313D0114653EA010014
:1004E00019D0C8F14002504600F04FF805460E46BC
:1004F00050465946424600F039F8084305D00120DD
:1005000004E020463946BDE8F08D0020054346EA68
:10051000E0762C4337430A986305E40AA0EB080011
:100520000022FD0A44EA47540A3002D50020014661
:10053000E9E7010510196941DDE90845001969413C
:10054000BDE8F04DA2E70000064C074D06E0E0686C
:1005500040F0010394E8070098471034AC42F6D30A
:10056000FFF7CCFD98410008B8410008202A04DBC1
:10057000203A00FA02F1002070479140C2F12003B6
:1005800020FA03F3194390407047202A04DB203AF5
:1005900021FA02F00021704721FA02F3D040C2F1A3
:1005A0002002914008431946704700BFFEE770479C
:1005B00010B5012000F062F810BD10B54FF40050E6
:1005C00000F05CF810BD10B5022000F057F810BD27
:1005D0007047000010B50446012C01D12349087072
:1005E000022C02D1002021490870B4F5005F02D12D
:1005F00002201E4908701E48006800F001001D49D5
:10060000096801F40051084342F20101884205D112
:100610000120194908700320144908701448006823
:1006200000F001001249096801F0020108430328A3
:1006300005D102201049087004200C4908700D48AB
:10064000006800F400500A49096801F002010843FB
:1006500042F20201884205D10320074908700420B4
:1006600002490870322002F0DBFD10BD4900002075
:1006700010140240100802404800002010B5044643
:1006800004480068204020B1024804602046FFF77B
:10069000A1FF10BD1404014078B5034600220024D8
:1006A0000020CAE0012696400D6805EA0604002CE9
:1006B00071D04D68022D02D04D68122D13D1D6088D
:1006C00003F1200555F826005507EE0E0F25B5401D
:1006D000A8435607F60E0D69B5402843D60803F126
:1006E000200545F82600186856000325B540A843A4
:1006F0000D7905F003055600B540284318604D6894
:10070000012D08D04D68022D05D04D68112D02D065
:100710004D68122D13D1986856000325B540A843A3
:100720005600CD68B540284398605868012595402B
:10073000A8430D79C5F30015954028435860D86843
:1007400056000325B540A84356008D68B5402843A0
:10075000D8604D6805F08055B5F1805F6CD100BF61
:10076000394D2D6845F00105374E356035462D6809
:1007700005F00105009500BF00BF344D960855F8FF
:10078000260095072E0F0F25B540A843304DAB42EC
:1007900002D1002515E04FE02E4DAB4201D10125DD
:1007A0000FE02D4DAB4201D102250AE02B4DAB42AB
:1007B00001D1032505E02A4DAB4201D1042500E01B
:1007C00005259607360FB5402843204D960845F875
:1007D0002600244D2868A0434D6805F48035B5F502
:1007E000803F00D120431F4D28602D1D2868A04365
:1007F0004D6805F40035B5F5003F00D12043194D93
:100800002D1D28602D1D2868A0434D6805F4801516
:10081000B5F5801F00D12043124D083528602D1DED
:100820002868A0434D6805F40015B5F5001F00D1F8
:1008300020430C4D0C352860521C0D68D540002D0E
:100840007FF430AF78BD000020380240080001403E
:10085000000002400004024000080240000C024078
:1008600000100240000401400AB1816101E00B0464
:100870008361704701480068704700005C000020F9
:1008800070B504460CB9012070BD94F83D0028B93C
:10089000002084F83C00204600F0FAFA242084F876
:1008A0003D002068006820F001002168086000F029
:1008B000D5FF05465C496068884206D85B4885429A
:1008C00001D2012007E0002005E05948854201D20D
:1008D000012000E00020012800D1D5E75548B5FBF4
:1008E000F0F62068406820F03F00304321684860FF
:1008F0004D496068884201D8701C07E04FF496703B
:1009000070434FF47A71B0FBF1F0401C2168096A22
:1009100021F03F010843216808624349606888422A
:1009200014D8681E61684900B0FBF1F0401CC0F3A8
:100930000B00042801D204203DE0681E61684900D4
:10094000B0FBF1F0401CC0F30B0034E0A06838B9F4
:10095000681E616801EB4101B0FBF1F0401C0AE048
:10096000681E616801EBC10202EB0111B0FBF1F0FE
:10097000401C40F48040C0F30B0008B901201AE08D
:10098000A06848B9681E616801EB4101B0FBF1F055
:10099000401CC0F30B000CE0681E616801EBC10253
:1009A00002EB0111B0FBF1F0401CC0F30B0040F46E
:1009B000804040F400402168C9694CF6FF729143C1
:1009C00008432168C861D4E9070108432168096820
:1009D00021F0C001084321680860D4E903100843EE
:1009E0002168896848F2FF32914308432168886092
:1009F000D4E9050108432168C96821F0FF010843D3
:100A00002168C8602068006840F001002168086023
:100A100000202064202084F83D000020206384F81A
:100A20003E0000BF30E70000A086010080841E0069
:100A300000093D0040420F002DE9FC5F04460F46CF
:100A400090469946DDE90CAB0E9EFFF713FF054675
:100A500094F83D00202870D119230122B049204686
:100A6000009501F08FFF10B10220BDE8FC9F00BF90
:100A700094F83C00012801D10220F6E7012084F817
:100A80003C0000BF2068006800F0010028B9206821
:100A9000006840F00100216808602068006820F4C8
:100AA000006021680860222084F83D00402084F81E
:100AB0003E0000202064C4F824A0A4F82AB0608D71
:100AC00020859848E0624B46424639462046CDE9AB
:100AD000006501F027FE08B10120C6E7208D88B926
:100AE00000BF002001902068406901902068806963
:100AF000019000BF00BF2068006840F400702168CA
:100B0000086040E0208D012818D12068006820F49A
:100B100080602168086000BF002001902068406963
:100B2000019020688069019000BF00BF20680068C4
:100B300040F400702168086025E0EFE0208D022875
:100B400016D12068006820F4806021680860206861
:100B5000006840F400602168086000BF0020019038
:100B600020684069019020688069019000BF0AE018
:100B700000BF0020019020684069019020688069D2
:100B8000019000BF00BFBAE0208D03287ED8208DE1
:100B9000012815D12A463146204601F098FF08B1B8
:100BA000012062E720680069616A0870606A401C81
:100BB0006062208D401E2085608D401E60859EE015
:100BC000208D02282AD1334600225749204600951D
:100BD00001F0D8FE08B1012047E72068006840F422
:100BE00000702168086020680069616A0870606AA6
:100BF000401C6062208D401E2085608D401E6085F7
:100C000020680069616A0870606A401C6062208D1B
:100C1000401E2085608D401E608570E033460022B6
:100C200041492046009501F0ADFE08B101201CE7C6
:100C30002068006820F480602168086020680069EE
:100C4000616A0870606A401C6062208D401E2085C9
:100C5000608D401E60853346002233492046009552
:100C600001F090FE08B10120FFE62068006840F422
:100C700000702168086020680069616A0870606A15
:100C8000401C6062208D401E208500E010E0608DD9
:100C9000401E608520680069616A0870606A401CB7
:100CA0006062208D401E2085608D401E608526E09C
:100CB0002A463146204601F00AFF08B10120D4E659
:100CC00020680069616A0870606A401C6062208D5B
:100CD000401E2085608D401E608520684069C0F3FD
:100CE000800060B120680069616A0870606A401C19
:100CF0006062208D401E2085608D401E6085208DA5
:100D000000287FF441AF202084F83D00002084F8C3
:100D10003E0000BF84F83C0000BFA6E60220A4E627
:100D2000020010000000FFFF040001002DE9FC5F3D
:100D300004460F4690469946DDE90CAB0E9EFFF740
:100D400099FD054694F83D0020287DD11923012204
:100D50004D492046009501F015FE10B10220BDE876
:100D6000FC9F00BF94F83C00012801D10220F6E767
:100D7000012084F83C0000BF2068006800F00100FA
:100D800028B92068006840F00100216808602068E8
:100D9000006820F4006021680860212084F83D008C
:100DA000402084F83E0000202064C4F824A0A4F869
:100DB0002AB0608D20853548E0624B464246394670
:100DC0002046CDE9006501F049FD08B10120C6E7E4
:100DD00031E02A463146204601F0B9FE50B1206C80
:100DE000042805D12068006840F40070216808607C
:100DF0000120B4E7606A007821680861606A401CDD
:100E00006062208D401E2085608D401E60852068B8
:100E10004069C0F3800070B1208D60B1606A0078D5
:100E200021680861606A401C6062208D401E208538
:100E3000608D401E6085208D0028CAD12A4631462B
:100E4000204601F071FD00E01CE050B1206C042848
:100E500005D12068006840F4007021680860012016
:100E60007DE72068006840F4007021680860202059
:100E700084F83D00002084F83E0000BF84F83C0068
:100E800000BF6CE702206AE7020010000000FFFFCD
:100E900010B586B00446142101A8FFF74EF9194990
:100EA000206888422BD100BF1748006840F002003C
:100EB000154908600846006800F00200009000BF75
:100EC00000BFC02001901220029001200390032057
:100ED00004900420059001A90C48FFF7DDFB00BF3A
:100EE00009480830006840F40010074908310860DC
:100EF0000846006800F40010009000BF00BF06B074
:100F000010BD0000005400401C38024000040240A4
:100F100003480068034909680844014908607047AC
:100F20005C0000206400002010B50024032000F0C5
:100F30005FFA002000F008F808B1012401E000F099
:100F4000DBF9204610BD000070B5044600251148AD
:100F50000068D8B10F4800684FF47A71B1FBF0F027
:100F60000D490968B1FBF0F6304601F02BFA58B98B
:100F7000102C07D200222146501E00F0FBF9074832
:100F8000046004E0012502E0012500E00125284677
:100F900070BD000064000020680000206000002098
:100FA00070B504460026002594F83500012803D0CA
:100FB00094F83500022835D100BF94F83400012898
:100FC00001D1022070BD012084F8340000BF02204E
:100FD00084F83500FFF74EFC06460EE0FFF74AFCAA
:100FE000801BB0F57A7F08D90220A06300BF0020E3
:100FF00084F8340000BF0320E4E720688068C0F371
:1010000080000028EAD1002505E000212068143086
:1010100040F825106D1C0F2DF7D9204600F0F0F890
:101020000020CFE70120CDE770B50446002600255B
:101030000CB9012070BD94F8350028B9002084F85F
:101040003400204600F078F8022084F8350020684B
:10105000006820F0010021680860002506E00021FA
:101060002068143040F82510681CC5B20F2DF6D941
:101070002068806840F0040021688860D4E901019C
:101080000843A16A0843E16A0843E1690843216A09
:101090000843A1690843616A084321684968254AF1
:1010A0001140084321684860204601F07FFDD4E9E3
:1010B0000301084361690843216B084321680968FB
:1010C00021F0FE010843216808602068006840F0B4
:1010D000010021680860FFF7CDFB064609E0FFF735
:1010E000C9FB801BB0F57A7F03D90820A0630320D9
:1010F000A0E72068806800F001000028EFD0FFF72B
:10110000B9FB064609E0FFF7B5FB801BB0F57A7F17
:1011100003D91020A06303208CE720688068C0F307
:1011200000100028EFD00020A063012084F83500D3
:1011300000207FE70F0000FC10B586B004461421A4
:1011400001A8FEF7FAFF2A49206888424ED100BF65
:101150002848006840F40070264908600846006886
:1011600000F40070009000BF00BF00BF21480838A5
:10117000006840F001001F4908390860084600680F
:1011800000F00100009000BF00BF00BF08460068EB
:1011900040F0020008600846006800F0020000907D
:1011A00000BF00BF48F2CE700190022002900020E4
:1011B000039004900B20059001A90F48FFF76CFAEB
:1011C0004FF63B50019002200290002003900490C3
:1011D0000B20059001A90948FFF75EFA002211468D
:1011E000182000F0C7F8182000F0B4F806B010BDC1
:1011F0000024004024380240000002400004024065
:1012000070B50446002508202168C8602068806801
:1012100040F0040021688860FFF72CFB05460EE0D3
:10122000FFF728FB401BB0F57A7F08D90420A063A4
:1012300000BF002084F8340000BF032070BD206888
:101240008068C0F3C0000028EAD0012084F835008F
:1012500000BF002084F8340000BF00BFEEE72DE996
:10126000F04104460D4616461F464FF0000894F81C
:101270003500012803D094F83500022839D194F8BC
:101280003500012828D100BF94F83400012802D18C
:101290000220BDE8F081012084F8340000BF022064
:1012A00084F83500FFF7E6FA80460FE0FFF7E2FA30
:1012B000A0EB0800B0F57A7F08D90220A06300BF38
:1012C000002084F8340000BF0320E2E72068806833
:1012D000C0F380000028E9D12068143050F82500C0
:1012E000F143884338432168143141F82500002038
:1012F000CFE70120CDE7000008B500BF1448006823
:1013000040F00040124908600846006800F00040C4
:10131000009000BF00BF00BF081F006840F0010040
:10132000091F08600846006800F00100009000BF37
:1013300000BF00BF081D006840F08050091D086014
:101340000846006800F08050009000BF00BF08BD54
:101350002438024001460846002809DB00F01F033C
:1013600001229A4043099B0003F1E023C3F80021C6
:1013700000BF70472DE9F05F80460D4616460027F6
:1013800001F022FF074639462A46334601F007009E
:10139000C0F1070ABAF1040F02D94FF0040A01E0C4
:1013A000C0F1070AD14600F1040ABAF1070F02D2D0
:1013B0004FF0000A01E0A0F1030AD4464FF0010A01
:1013C0000AFA09FAAAF1010A0AEA020A0AFA0CFA66
:1013D0004FF0010B0BFA0CFBABF1010B0BEA030B0B
:1013E0004AEA0B042146404601F0F6FEBDE8F09FB4
:1013F00000BF00F00702064B19684FF6FF031940C3
:10140000044B0B4343EA0221014B196000BF7047B4
:101410000CED00E00000FA05012090FAA0F1B1FA0D
:1014200081F1054A42F82100810391FAA1F1B1FA54
:1014300081F142F82100704700000E420D4A126807
:1014400022F0030202430B4B1A600B4A126842F06F
:101450000402094B1A60012901D130BF02E040BFEC
:1014600020BF20BF044A126822F00402024B1A6017
:10147000704700000070004010ED00E0F8B5044631
:10148000207800F0010020B9207800F00200022846
:101490007ED1207800F0010000B100BF207800F07C
:1014A0000200022800D100BF00275E48006800F05B
:1014B000805070B900BF5B48006840F080505949C7
:1014C00008600846006800F08050009000BF00BF30
:1014D00001275548006800F48070B0B95248006890
:1014E00040F4807050490860FFF7C4F9064606E0F2
:1014F000FFF7C0F9801B642801D90320F8BD4A48D2
:10150000006800F480700028F2D046482438006853
:1015100000F0C045606800F0C040A84204D1A06857
:1015200000F0C040A8420FD0606800F44030B0F531
:10153000403F09D13B482438006800F40030B0F542
:10154000003F01D10120D9E736481030006800F48F
:1015500040359DB3606800F44030A84203D0207845
:1015600000F0010048B9A06800F44030A8422DD036
:10157000207800F00200022828D12A4810300068A4
:1015800020F440350120294908600020086000E06F
:1015900045E024481030056005F48070B0F5807F88
:1015A00014D1FFF767F9064609E0FFF763F9801BDE
:1015B00041F28831884202D903209FE706E01948AA
:1015C0001030006800F400700028EED000BF00BFAB
:1015D000606800F44030B0F5403F0BD1114824382A
:1015E000006820F0C040616801F0C04108430D4927
:1015F0002439086000BF0B4810300068616801F4AE
:101600004031084307491031086000BF012F05D160
:101610000448006820F080500249086000BF0020A4
:101620006CE700002438024000700040DC064742AE
:101630002DE9F04104460D4614B90120BDE8F081C2
:101640007E48006800F00100A84218D200BF012DBA
:1016500005D17A48006840F004007849086077486E
:10166000006820F0010028437449086000BF084664
:10167000006800F00100A84201D00120DEE72078D8
:1016800000F00200022807D16D48006820F0F00049
:10169000A16808436A490860207800F0010000282A
:1016A0007FD06068022807D165480838006800F4D8
:1016B0000030F8B90120C1E76068032807D160480D
:1016C0000838006800F00070A0B90120B6E7606833
:1016D000012807D15A480838006800F0020048B9CC
:1016E0000120ABE756480838006800F4007008B9DC
:1016F0000120A3E75248006820F003006168084316
:101700004F490860FFF7B6F806466068022810D116
:1017100008E0FFF7AFF8801B41F28831884201D919
:1017200003208BE74648006800F00C000828F0D141
:1017300037E06068032810D108E0FFF79BF8801BB2
:1017400041F28831884201D9032077E73C4800689C
:1017500000F00C000C28F0D123E06068012810D1C3
:1017600008E0FFF787F8801B41F28831884201D9F1
:10177000032063E73248006800F00C000428F0D131
:101780000FE008E0FFF776F8801B41F288318842CD
:1017900001D9032052E72A48006800F00C00002815
:1017A000F0D12648006800F00100A84218D900BF17
:1017B000012D05D12148006840F004001F49086050
:1017C0001E48006820F0010028431C49086000BF43
:1017D0000846006800F00100A84201D001202DE772
:1017E000207800F00400042807D11548006820F490
:1017F000E060E168084312490860207800F00800C2
:10180000082808D10E48006820F46050216940EA99
:10181000C1000B49086000F031F809490968C1F3BB
:101820000311084A515CC84007490860074800682E
:10183000FFF78AFB0746384600E70000003C0240FD
:10184000083802407D410008680000206000002048
:1018500001480068704700006800002000B5FFF7ED
:10186000F7FF04490968C1F30221034A515CC840EB
:1018700000BD0000083802408D410008F0B51A4E46
:10188000316801F00C0616B3042E04D0082E04D0E3
:101890000C2E1BD103E0154823E0154821E0154E1E
:1018A000C1F38347F25DC1F38156731C0E4E366857
:1018B00006F4803626B10E4E5643B6FBF3F403E031
:1018C0000A4E5643B6FBF3F420460AE000BF064E2C
:1018D000361F3668C6F342356E1C0127B740F80341
:1018E00000BF00BFF0BD0000083802400024F40033
:1018F000002D3101744100082DE9F843044614B964
:101900000120BDE8F883FE48006800F00C06FC48A2
:10191000006800F48037207800F00100002875D0BE
:10192000082E04D00C2E0ED1B7F5803F0BD1F44811
:101930000838006800F40030002867D0606800288C
:1019400064D10120DDE700BF6068012808D1EC48C0
:101950000838006840F48030E949083908602DE013
:10196000606868B9E6480838006820F48030E449C7
:10197000083908600846006820F4802008601DE0EF
:10198000606805280DD1DE480838006840F48020E2
:10199000DB49083908600846006840F48030086078
:1019A0000CE0D7480838006820F48030D449083962
:1019B00008600846006820F48020086000BF606866
:1019C00090B1FEF757FF054606E0FEF753FF401BB8
:1019D000642801D9032094E7C9480838006800F456
:1019E00000300028F1D011E0FEF744FF054606E084
:1019F000FEF740FF401B642801D9032081E7C0485F
:101A00000838006800F400300028F1D1207800F098
:101A10000200022853D1042E02D00C2E17D1B7B9E0
:101A2000B7480838006800F0020020B1E0680128DB
:101A300001D0012065E7B248001F006820F4F8508B
:101A4000216940EA0120AE49091F086037E0E068DB
:101A500000B30120AB490860FEF70CFF054606E025
:101A6000FEF708FF401B022801D9032049E7A448DC
:101A70000838006800F002000028F1D0A048001FDC
:101A8000006820F4F850216940EA01209C49091FB0
:101A9000086014E000209B490860FEF7EBFE054655
:101AA00006E0FEF7E7FE401B022801D9032028E7E5
:101AB00093480838006800F002000028F1D120782F
:101AC00000F01000102871D1F6BB8D48083800686E
:101AD00000F4007018B1A06908B9012011E7884925
:101AE000091F206A096801F46041884219D9206AF7
:101AF00001F0D6F908B1012003E78148001F006812
:101B000020F46040216A08437D49091F0860217F55
:101B10007B48001F006861F31F607949091F086056
:101B20001AE07748001F006820F46040216A0843EB
:101B30007349091F0860217F7148001F006861F325
:101B40001F606F49091F00E020E00860206A01F073
:101B5000A7F908B10120D4E60121206A01EB503138
:101B600001208840C00366490968C1F30311664A31
:101B7000515CC8406549086065480068FFF7E4F9B2
:101B80008046B8F1000F42D04046BAE6A06948B39B
:101B900001205C490862FEF76DFE054607E0FEF78E
:101BA00069FE401B022802D90320AAE62FE0544810
:101BB0000838006800F400700028F0D05048001F7A
:101BC000006820F46040216A08434D49091F0860FD
:101BD000217F4B48001F006861F31F604849091FBF
:101BE000086014E0002047490862FEF743FE0546FE
:101BF00006E0FEF73FFE401B022801D9032080E6E5
:101C00003F480838006800F400700028F1D12078BF
:101C100000F0080008282CD16069A8B101203D49D6
:101C20000860FEF727FE054606E0FEF723FE401B90
:101C3000022801D9032064E631482C30006800F006
:101C400002000028F1D014E0002032490860FEF7BD
:101C500011FE054606E0FEF70DFE401B022801D9E5
:101C600003204EE626482C30006800F002000028D1
:101C7000F1D1207800F0040004286ED14FF0000963
:101C80001F481C30006800F0805088B900BF1C4815
:101C90001C30006840F0805019491C31086008462B
:101CA000006800F08050009000BF00BF4FF00109B5
:101CB0001948006800F48070B0B91748006840F413
:101CC000807015490860FEF7D5FD054606E0FEF771
:101CD000D1FD401B642801D9032012E60E4800689C
:101CE00000F480700028F2D000BFA068012817D14E
:101CF00003482C30006840F4807001492C310DE01D
:101D000008380240000047427D410008680000207A
:101D1000600000208006474200700040086028E014
:101D2000A06858B96648006820F48070644908606B
:101D30000846006820F4806008601AE0A068052862
:101D40000CD15F48006840F480605D490860084637
:101D5000006840F4807008600BE040E0584800687C
:101D600020F48070564908600846006820F48060BE
:101D7000086000BFA06898B1FEF77CFD054608E04A
:101D8000FEF778FD401B41F28831884201D90320DB
:101D9000B7E54B48006800F400700028F0D012E06E
:101DA000FEF768FD054608E0FEF764FD401B41F2C2
:101DB0008831884201D90320A3E54148006800F436
:101DC00000700028F0D1B9F1010F07D13C4810385C
:101DD000006820F080503A491039086000BF606AFE
:101DE000A8B30C2E52D0606A022839D100203549A0
:101DF0000866FEF73FFD054606E0FEF73BFD401B8B
:101E0000022801D903207CE52D483438006800F011
:101E100000700028F1D1D4E90A010843216B08437E
:101E200027492C39096821F47D01084324492C39BC
:101E30000860012023490866FEF71CFD054607E0FF
:101E4000FEF718FD401B022802D9032059E535E0B2
:101E50001B483438006800F000700028F0D02DE0F6
:101E6000002018490866FEF705FD054606E0FEF766
:101E700001FD401B022801D9032042E510483438F7
:101E8000006800F000700028F1D117E0606A0128B6
:101E900000D136E50A482C38076807F48031A06A7B
:101EA000814209D107F47011E06A814204D107F43C
:101EB0004001206B814201D0012022E5002020E575
:101EC00034380240000047422DE9F04104460E46F6
:101ED000174600BF207F012802D10220BDE8F08113
:101EE0000120207700BF0220607700BFCA20216850
:101EF000486253202168486200BF2068806800F46F
:101F00008060E0B1FEF7B6FC054612E0FEF7B2FCD9
:101F1000401BB0F57A7F0CD900BFFF2021684862D2
:101F200000BF0320607700BF0020207700BF0320A0
:101F3000D4E72068C068C0F380000028E6D120689C
:101F4000806820F48060216888602068C06800F0A4
:101F5000800060F490602168C860FEF78BFC054645
:101F600012E0FEF787FC401BB0F57A7F0CD900BF6A
:101F7000FF202168486200BF0320607700BF002077
:101F8000207700BF0320A9E72068C068C0F3800065
:101F90000028E6D0206846612068806820F00700AD
:101FA0002168886020688068384321688860134809
:101FB000006840F48010114908601048083000683B
:101FC00040F480100D49083108602068806840F4B2
:101FD0008040216888602068806840F480602168C3
:101FE000886000BFFF202168486200BF0120607741
:101FF00000BF0020207700BF00BF6FE70004014052
:102000007047000010B504462068C068C0F3802007
:1020100050B12046FFF7F4FF2068C06800F0800050
:1020200060F490602168C8604FF480100249086035
:102030000120607710BD00001404014070B5054612
:102040000B461646286800680F4900EA0104C4F3ED
:1020500005401870C4F30620587004F07F00987093
:1020600004F48000000CD8705EB9187800F06CFFA2
:102070001870587800F068FF5870987800F064FF86
:102080009870002070BD00007F7F7F0010B504466F
:102090000CB9012010BD607F20B9002020772046B8
:1020A00000F04EF80220607700BFCA202168486225
:1020B00053202168486200BF204600F05DFF40B118
:1020C00000BFFF202168486200BF04206077012024
:1020D000E0E7206880681949084021688860216924
:1020E000606808436169084321688968084321687A
:1020F00088602168E068086120680169208941EAF8
:102100000040216808612068C06820F080002168D4
:10211000C8602068006C20F4802021680864206872
:10212000006CA16908432168086400BFFF20216892
:10213000486200BF012060770020ABE7BFFF8FFF40
:1021400010B504460749206888420AD10120064993
:102150000860002211460320FFF70CF90320FFF767
:10216000F9F810BD00280040D80647422DE9F0419B
:1021700004460D46164600BF207F012802D10220EA
:10218000BDE8F0810120207700BF022060774EB9C2
:10219000687800F01000102804D1687800F0EF0093
:1021A0000A30687096B9E87800F0D8FE4FEA004827
:1021B000687800F0D3FE48EA0028A87800F0CEFE48
:1021C00048EA0008287848EA403709E0E87800043F
:1021D000697840EA0120A9780843297840EA413724
:1021E00000BFCA202168486253202168486200BFAE
:1021F000204600F0C1FE60B100BFFF2021684862A8
:1022000000BF0420607700BF0020207700BF0120BE
:10221000B6E714483840216848602068C06820F05C
:1022200080002168C860204600F0B0F860B100BFAF
:10223000FF202168486200BF0420607700BF0020B3
:10224000207700BF01209BE700BFFF202168486284
:1022500000BF0120607700BF0020207700BF00BFD3
:102260008EE700003FFFFF002DE9F04104460D46D8
:10227000174600BF207F012802D10220BDE8F0816F
:102280000120207700BF02206077DFB920688068D6
:1022900000F0400000B102E00020E87000BF2878A4
:1022A00000F05CFE4FEA0048687800F057FE48EA0C
:1022B0000028A87800F052FE48EA0008E87848EACA
:1022C000004612E02068806800F0400000B102E0A3
:1022D0000020E87000BF28780004697840EA0120F7
:1022E000A9780843E97840EA014600BFCA2021687E
:1022F000486253202168486200BF204600F03CFE3F
:1023000060B100BFFF202168486200BF04206077F1
:1023100000BF0020207700BF0120AFE71A483040FF
:10232000216808602068806820F480202168886027
:10233000D5E901010843216889680843216888605C
:102340002068C06820F080002168C860204600F046
:102350001DF860B100BFFF202168486200BF042063
:10236000607700BF0020207700BF012086E700BF14
:10237000FF202168486200BF0120607700BF002075
:10238000207700BF00BF79E77F7F7F0070B50446EC
:102390002068C06820F0A0002168C860FEF76AFAD3
:1023A000054607E0FEF766FA401BB0F57A7F01D9D3
:1023B000032070BD2068C06800F020000028F1D024
:1023C0000020F6E770B504462546681EB0F1807F10
:1023D00001D301200FE0681E4FF0E02148610F217A
:1023E0004FF0FF3000F0F8FE00204FF0E021886150
:1023F00007200861002070BD10B504460CB901200B
:1024000010BD94F8390028B9002084F8380020461F
:1024100000F00CF8022084F83900211D206800F03B
:1024200059FE012084F839000020E9E738B5044658
:102430000D492068884215D100BF0C48006840F063
:1024400010000A4908600846006800F0100000907B
:1024500000BF00BF002211461B20FEF78BFF1B2090
:10246000FEF778FF38BD0000001001402038024020
:102470002DE9F04104460D4600BF94F838000128CC
:1024800002D10220BDE8F081012084F8380000BFAD
:10249000022084F839002068866826F0770626F442
:1024A0007F46206886602868502833D00CDC2028BE
:1024B00050D004DC00284BD0102851D149E03028FE
:1024C00049D040284CD139E060282DD0702807D061
:1024D000B0F5805F03D0B0F5005F41D10DE040E082
:1024E000D5E902136A68206800F030FE206886682B
:1024F00046F077062068866033E0D5E902136A6803
:10250000206800F023FE2068806840F48040216845
:10251000886026E0EA686968206800F02BFE502198
:10252000206800F01EFE1CE0EA686968206800F080
:1025300034FE6021206800F014FE12E0EA68696849
:10254000206800F017FE4021206800F00AFE08E035
:1025500000BF00BF00BF2968206800F002FE00E055
:1025600000BF00BF012084F8390000BF002084F8BC
:10257000380000BF00BF85E7704710B504462068EB
:102580000069C0F34000D8B12068C068C0F34000C3
:10259000B0B16FF002002168086101202076206848
:1025A000806900F0030018B12046FFF7E5FF05E061
:1025B000204600F08BF8204600F089F800202076B5
:1025C00020680069C0F38000D8B12068C068C0F3FB
:1025D0008000B0B16FF0040021680861022020760D
:1025E0002068806900F4407018B12046FFF7C4FFEE
:1025F00005E0204600F06AF8204600F068F8002068
:10260000207620680069C0F3C000D8B12068C06897
:10261000C0F3C000B0B16FF0080021680861042069
:1026200020762068C06900F0030018B12046FFF74B
:10263000A3FF05E0204600F049F8204600F047F8E7
:102640000020207620680069C0F30010D8B120680F
:10265000C068C0F30010B0B16FF0100021680861CD
:10266000082020762068C06900F4407018B1204628
:10267000FFF782FF05E0204600F028F8204600F032
:1026800026F8002020762068006900F0010058B18B
:102690002068C06800F0010030B16FF001002168CF
:1026A0000861204600F014F820680069C0F380102B
:1026B00058B12068C068C0F3801030B16FF040009E
:1026C00021680861204600F00BF810BD7047704784
:1026D00002490968491C014A1160704758000020EE
:1026E000704700BFFEE7014608684069C0F38020DC
:1026F000B0B16FF480600A68506100200863202048
:1027000081F83D00002081F83E00086C40F0040094
:10271000086400BF002081F83C0000BF0120704722
:102720000020FCE72DE9F84304460F46154699467C
:10273000DDE908862068006840F480602168086050
:102740002068006840F480702168086043460022D9
:102750004FF001112046009600F014F910B101204D
:10276000BDE8F88307F0FE00216808613346424661
:102770003949204600F049F908B10120F0E700BFCF
:1027800000200090206840690090206880690090D7
:1027900000BF00BF32464146204600F0D8F950B194
:1027A000206C042805D12068006840F4007021687E
:1027B00008600120D4E7B9F1010F03D1E8B2216824
:1027C000086117E0C5F307202168086132464146D9
:1027D000204600F0BCF950B1206C042805D12068D7
:1027E000006840F40070216808600120B8E7E8B292
:1027F0002168086132464146204600F0A8F950B1F0
:10280000206C042805D12068006840F4007021681D
:1028100008600120A4E72068006840F48070216807
:102820000860434600224FF001112046009600F058
:10283000A9F808B1012093E7F8B240F0010021683F
:102840000861334642460449204600F0DEF808B1EC
:10285000012085E7002083E7020001002DE9F8430D
:102860000446884615469946DDE9086720680068F1
:1028700040F4807021680860334600224FF0011157
:102880002046009700F07EF810B10120BDE8F883E3
:1028900008F0FE00216808613B4632462149204687
:1028A00000F0B3F808B10120F0E700BF002000906D
:1028B00020684069009020688069009000BF00BFD8
:1028C0003A463146204600F042F950B1206C0428C7
:1028D00005D12068006840F400702168086001207C
:1028E000D4E7B9F1010F03D1E8B22168086117E01C
:1028F000C5F30720216808613A463146204600F0BA
:1029000026F950B1206C042805D12068006840F4F5
:102910000070216808600120B8E7E8B2216808610A
:102920000020B3E70200010070B504460D461646CC
:1029300020E02046FFF7D7FE08B1012070BD681CDB
:10294000C0B1FDF797FF801BA84200D895B90020C1
:102950002063202084F83D00002084F83E00206C95
:1029600040F02000206400BF002084F83C0000BF3D
:102970000120E3E720684069C0F380000028D8D038
:102980000020DBE72DE9F04104460D4617461E46C0
:10299000DDF818801CE0701CD0B1FDF76BFFA0EBD8
:1029A0000800B04200D89EB900202063202084F89F
:1029B0003D00002084F83E00206C40F020002064A0
:1029C00000BF002084F83C0000BF0120BDE8F0817A
:1029D000C5F3074001280AD120684069A9B2084020
:1029E000A9B2884201D101200BE0002009E0206853
:1029F0008069A9B20840A9B2884201D1012000E053
:102A00000020B842C7D00020E0E72DE9F04104469D
:102A10000D4616461F463DE020684069C0F3802001
:102A2000E8B12068006840F40070216808606FF425
:102A300080602168486100202063202084F83D00E8
:102A4000002084F83E00206C40F00400206400BFA9
:102A5000002084F83C0000BF0120BDE8F081701C1C
:102A6000C0B1FDF707FFC01BB04200D896B90020E7
:102A70002063202084F83D00002084F83E00206C74
:102A800040F02000206400BF002084F83C0000BF1C
:102A90000120E2E7C5F3074001280AD12068406918
:102AA000A9B20840A9B2884201D101200BE0002060
:102AB00009E020688069A9B20840A9B2884201D122
:102AC000012000E000200028A6D00020C5E770B556
:102AD00004460D46164632E020684069C0F30010F7
:102AE000A0B16FF010002168486100202063202011
:102AF00084F83D00002084F83E00206C206400BF74
:102B0000002084F83C0000BF012070BDFDF7B2FE3C
:102B1000801BA84200D895B900202063202084F8AB
:102B20003D00002084F83E00206C40F0200020642E
:102B300000BF002084F83C0000BF0120E5E72068CA
:102B40004069C0F380100028C6D00020DDE770B5D2
:102B500004460D46164620E02046FFF7C4FD08B1A6
:102B6000012070BD681CC0B1FDF784FE801BA84227
:102B700000D895B900202063202084F83D00002073
:102B800084F83E00206C40F02000206400BF00204C
:102B900084F83C0000BF0120E3E720684069C0F3EF
:102BA000C0100028D8D00020DBE7704770B504467D
:102BB0000025FDF75FFE054609E0FDF75BFE401BC3
:102BC000B0F57A7F03D90120A063032070BD20688F
:102BD0008068C0F340100028EFD00020F6E7000026
:102BE00000B587B0142102A8FDF7A7FA00BF454839
:102BF000006840F00400434908600846006800F09F
:102C00000400019000BF00BF00BF0846006840F00C
:102C1000200008600846006800F02000019000BF16
:102C200000BF00BF0846006840F001000860084689
:102C3000006800F00100019000BF00BF00BF08461F
:102C4000006840F0020008600846006800F00200DA
:102C5000019000BF00BF002289142B48FDF704FE3D
:102C60004FF400500290294803900220049002A9DA
:102C70002748FDF711FD032002902448039002200D
:102C8000049002A92348FDF707FD40F631000290A9
:102C9000032003900020049002A91B48FDF7FCFCD0
:102CA0004FF401700290032003900020049002A9C9
:102CB0001948FDF7F1FC4FF4805002900120039079
:102CC00000200490059002A90F48FDF7E5FC0022C2
:102CD00011460620FEF74EFB0620FEF73BFB0022C6
:102CE00011460720FEF746FB0720FEF733FB0022C4
:102CF00011462820FEF73EFB2820FEF72BFB07B0ED
:102D000000BD00001C38024000000240000011100D
:102D100000080240001402400004024010B50B48B5
:102D20000B4908600B484860002109488160C16078
:102D30004FF480410161002141618161C161016203
:102D4000FDF79EFD08B1FDF743FC10BD00540040A7
:102D500084000020A086010010B5104810490860CA
:102D60004FF4800048604FF470110D4881600821D5
:102D7000C16040210161002141614FF440618161E6
:102D80000021C16140210162002101638162C162B1
:102D9000FEF74AF908B1FDF71BFC10BD0024004006
:102DA000D80000201FB500200190029003900090F1
:102DB000214822490860002048607F211F48816027
:102DC000FF21C1600021016141618161FFF75EF96E
:102DD00008B1FDF7FDFB0F208DF8040007208DF8EA
:102DE00005000F208DF806000020029003900022BD
:102DF00001A91248FFF738FA08B1FDF7E9FB0420F2
:102E00008DF8000010208DF801000A208DF80200D6
:102E100013208DF80300002269460848FFF7A6F941
:102E200008B1FDF7D5FB042205210448FFF74CF853
:102E300008B1FDF7CDFB1FBD0028004014010020A4
:102E40001FB5002000900190029003901048114996
:102E500008602120486000210E4881600121C16086
:102E6000002101614161FFF7C7FA08B1FDF7B0FB2E
:102E70004FF40050009000200190029003906946AA
:102E80000448FFF7F5FA08B1FDF7A2FB1FBD0000EB
:102E9000001001403401002000BFFEE7704770477A
:102EA00018B5034600222548006800F0F00050BB2A
:102EB00022481C30006800F0805020B12048006893
:102EC00000F4C05118E000BF1C481C30006840F0FE
:102ED00080501A4C1C3420602046006800F080505E
:102EE000009000BF00BF1648006800F4C0512046A3
:102EF000006820F080502060B1F5C05F03D1B3F5C9
:102F0000404F00D1012200BF012A05D10D480068C1
:102F100040F004000B4C20600A48006820F00100DB
:102F20001043084C206000BF2046006800F00100FC
:102F3000904201D0012018BD0020FCE70838024073
:102F400000700040003C02400146080900EB800090
:102F5000420001F00F001044C0B270470246002347
:102F6000114603E05B1CA1F10A00C1B20A29F9D2A3
:102F7000180741EA1060704770B504462068C068C1
:102F800000F04000A8B94FF0FF302168C860FDF79D
:102F900071FC054607E0FDF76DFC401BB0F57A7F3C
:102FA00001D9032070BD2068C06800F040000028EF
:102FB000F1D00020F6E7000010B50248FFF722F834
:102FC00010BD000014010020704710B5FDF7A0FFF0
:102FD00010BD000000B595B0342108A8FDF7ADF88C
:102FE000142103A8FDF7A9F8002000900190029099
:102FF0001A48006840F4C05018490860142008902E
:1030000001200A900E9000200F904FF42040109065
:103010000020119008A8FEF76FFC08B1FDF7D8FA60
:103020000F20039000200490059006904FF4C0609C
:103030000790002103A8FEF7FBFA08B1FDF7C8FAD4
:10304000032000904FF48030019002906846FEF714
:1030500015FA08B1FDF7BCFA15B000BD00700040CC
:103060001448006840F48070124908601148083024
:103070000068114908400F49083108600D48006890
:103080000E4908400B4908600846006820F480207B
:10309000086008480830006820F47D0005490831C0
:1030A00008600020091D08604FF0006004490860B6
:1030B00070470000003802400CC0FF88FEFFFEEEA3
:1030C00008ED00E010B50248FFF757FA10BD000008
:1030D0003401002010B50268B0F1804F05D0164BC6
:1030E000984202D0154B984203D122F070024B68EF
:1030F0001A43B0F1804F0ED00F4B98420BD00F4BBC
:10310000984208D00E4B984205D00E4B984202D000
:103110000D4B984203D122F44072CB681A4322F03F
:1031200080030C6943EA040202608B68C3620B6887
:1031300083620123436110BD000400400008004089
:1031400000080140000C01400010014030B50C4661
:10315000816821F47F4142EA0325254329438160A8
:1031600030BD0A46816821F0700142F0070319431F
:103170008160704730B50B461446026A056A25F037
:1031800001050562816921F0F00141EA041122F094
:103190000A021A438161026230BD30B50B46144603
:1031A000056A25F0100505628169026A21F4704103
:1031B00041EA043122F0A00242EA03128161026274
:1031C00030BD00BFFEE7000002480068C0F30220E7
:1031D000704700000CED00E010B5002804DB0A0782
:1031E000130E054A135406E00A07140E034A00F0B2
:1031F0000F031B1FD45410BD00E400E018ED00E0E5
:1032000002E008C8121F08C1002AFAD170477047AF
:10321000002001E001C1121F002AFBD1704700000D
:10322000002112E0002200E0521C322AFCD34FF0B1
:103230008052074B9A61002200E0521CC82AFCD33E
:103240004FF48052024B9A61491C8142EAD3704785
:10325000000002402DE9F0478EB081460C464FF049
:10326000FF30162108AA0123CDE900210290AA22ED
:10327000EE214846FDF7E0FB2E208DF814004FF0BC
:10328000FF30012105AA0B46CDE900210290F4226E
:10329000EE214846FDF74AFD002000E0401C41F2C7
:1032A00094118842FAD34FF0FF30022104AA01237F
:1032B000CDE900210290F622EE214846FDF7BCFB45
:1032C00004A908A800F0C8F9206034208DF8140083
:1032D0004FF0FF30012105AA0B46CDE900210290F5
:1032E000F422EE214846FDF721FD002000E0401CBD
:1032F00041F294118842FAD34FF0FF30032103AA20
:103300000123CDE900210290F622EE214846FDF787
:1033100093FB03A908A800F025F882465046FDF764
:103320002AF807460B4A0C4BFCF744FF0546FDF70D
:103330005AF8A060A068FDF743F80746074A084B13
:10334000FCF7AAFF0546FDF74EF8E06000200EB03E
:10335000BDE8F087B1779859F8B87E3F2B690754DC
:10336000E663EF3F38B504460D46A8788DF80000B7
:1033700068788DF8010028788DF8020000208DF81B
:103380000300009800129E49086060788DF80000E4
:1033900020788DF80100BDF800009A490880E07897
:1033A0008DF80000A0788DF80100BDF80000964966
:1033B000088060798DF8000020798DF80100BDF853
:1033C000000092490880E0798DF80000A0798DF81E
:1033D0000100BDF800008E490880607A8DF8000079
:1033E000207A8DF80100BDF800008A490880E07A53
:1033F0008DF80000A07A8DF80100BDF80000864924
:103400000880607B8DF80000207B8DF80100BDF8FE
:10341000000082490880E07B8DF80000A07B8DF8D9
:103420000100BDF800007E490880607C8DF8000036
:10343000207C8DF80100BDF800007A490880E07C0E
:103440008DF80000A07C8DF80100BDF800007649E1
:103450000880607D8DF80000207D8DF80100BDF8AA
:1034600000007249088072480068A0F57A607149CE
:1034700008600A46126802FB02F1CA1701EB1252F9
:103480001213674BB3F9003002FB03F0C21700EBD5
:103490005252D212684B1A605B49B1F90010654A6A
:1034A000126801FB02F0C11700EB5151C912634AC7
:1034B00011601846006811460968084460490860B0
:1034C0005049B1F900105E4A126802EB8101881C74
:1034D000C11700EB917189105A4A11604B49B1F93B
:1034E0000010544A126801FB02F0C11700EBD141F1
:1034F00049131A4611604F4A126802FB02F1CA17BB
:1035000001EB12521213454BB3F9003002FB03F0EA
:10351000C21700EB12421214484B1A604649096860
:103520001A4612681144881CC11700EB917189106A
:10353000434A1160364800881146096801F5004188
:103540004843C00B404908602D4800683D49096860
:10355000401A4CF2503148433C4908600846006824
:10356000B0F1004F09D208460068400036490968AA
:10357000B0FBF1F03649086008E034480068324991
:103580000968B0FBF1F0400031490860304A116829
:10359000CA1701EB126212122D4B1868C31700EB09
:1035A00013631B125A43244B1A601946096840F6EC
:1035B000DE3201FB02F0C11700EB114109141A467B
:1035C000116023490968234A01FB02F0C11700EB8F
:1035D00011410914194A1160194609681268114409
:1035E00001F6CF60C11700EB1171194A126802EBA6
:1035F0002111174A116000BF1046006838BD000055
:1036000030000020040000200600002008000020F8
:1036100016000020180000201A0000200A000020D8
:103620000C0000200E0000201000002012000020DE
:10363000000000202C0000201C00002020000020A2
:1036400024000020280000203C0000204000002032
:103650003400002043E3FFFF18B5024648788DF898
:10366000000008788DF80100BDF800004F4B18806D
:1036700050788DF8000010788DF80100BDF800003A
:103680004B4B1880D0788DF8000090788DF80100B1
:10369000BDF80000474B188050798DF80000107974
:1036A0008DF80100BDF80000434B1880D0798DF8EB
:1036B000000090798DF80100BDF800003F4B1880A4
:1036C000507A8DF80000107A8DF80100BDF80000E6
:1036D0003B4B1880D07A8DF80000907A8DF801006D
:1036E000BDF80000374B1880507B8DF80000107B30
:1036F0008DF80100BDF80000334B1880D07B8DF8A9
:103700000000907B8DF80100BDF800002F4B188061
:10371000507C8DF80000107C8DF80100BDF8000091
:103720002B4B1880D07C8DF80000907C8DF8010028
:10373000BDF80000274B1880507D8DF80000107DEB
:103740008DF80100BDF80000234B1880174B1B8833
:103750001C4C24881B1B1A4C248803FB04F0C31741
:1037600000EB5343DB131D4C23601A48B0F90000F3
:10377000C30220460068184CB4F90040204493FB73
:10378000F0F0174B1860154800681B681844154B7B
:1037900018601B6803F10800C31700EB13731B11BB
:1037A000114C23602046006818BD00001400002062
:1037B0000400002006000020080000201600002061
:1037C000180000201A0000200A0000200C00002031
:1037D0000E00002010000020120000201C0000201D
:1037E0002000002000000020380000202DE9F047D4
:1037F0008CB082460D4614461F460E2D02DD0CB0DD
:10380000BDE8F0872CA191E80D00C96808AE0DC68F
:103810000B912DA30FCB04AE0FC62FA3D3E900202D
:10382000D3E9021301AE0BC600924FF0070808A8B7
:10383000405D04EB440100FA01F637B904EB4400A3
:1038400008FA00F06FEA000901E06FEA0609334662
:103850004A4600215046FDF702FD04A8405D04EBF6
:10386000440100FA01F637B904EB440008FA00F00D
:103870006FEA000901E06FEA060933464A46022171
:103880005046FDF7ECFC1DF8050004EB440100FA7E
:1038900001F637B904EB440008FA00F06FEA0009BA
:1038A00001E06FEA060933464A4604215046FDF717
:1038B000D6FC00BFA3E700000704060605030306C5
:1038C00007070000070003000504030606060704B7
:1038D00007060000030201000200020200020200CB
:1038E00002020401000002001FB5FDF71DFBFFF7F7
:1038F00071FBFFF775F9FFF711FAFFF72DFAFFF7E4
:1039000051FAFFF79DFAB348FDF74AFB002000E0AB
:10391000401CB1498842FBD300204FF0E0210861F0
:10392000AE48006840F00800AC490860FDF774FD3F
:103930004FE1AB48007830B1012878D0022877D029
:10394000032873D140E16946A648FFF783FCA649E6
:103950000298FCF7FDFB0446FCF71EFDA349086036
:103960009C48FDF71DFBA14800680A21B0FBF1F25D
:1039700001FB12040023052221469648FFF736FF7B
:103980009A4800680A21B0FBF1F0B0FBF1F201FBAC
:1039900012040023042221468E48FFF727FF934894
:1039A00000686421B0FBF1F00A21B0FBF1F201FBE9
:1039B00012040023032221468648FFF717FF8B4895
:1039C00000684FF47A71B0FBF1F00A21B0FBF1F21C
:1039D00001FB12040023022221467E48FFF706FF66
:1039E00000231A460C217B48FFF700FF0123042225
:1039F0000A217848FFF7FAFE7648FDF701FC7B487C
:103A000000687B490968884203D94FF4C870FFF702
:103A100007FC7648006877490968884203D24FF46A
:103A2000C870FFF7FDFB6E48007810B1D0E0C4E02D
:103A3000C6E001210846FDF701FD6948007800B1A4
:103A4000C6E06448FDF7ACFA0A21009890FBF1F259
:103A500001FB1200C4B20023052221465D48FFF796
:103A6000C5FE0A21009890FBF1F090FBF1F201FBFA
:103A70001200C4B20023042221465648FFF7B6FEC6
:103A80006421009890FBF1F00A2190FBF1F201FB18
:103A90001200C4B20023032221464E48FFF7A6FEBF
:103AA0004FF47A71009890FBF1F00A2190FBF1F24B
:103AB00001FB120080B14FF47A71009890FBF1F095
:103AC0000A2190FBF1F201FB1200C4B20023022292
:103AD00021464048FFF78AFE00231A460E213D4842
:103AE000FFF784FE012304220A213A48FFF77EFEF5
:103AF0003848FDF785FB3A48007800B168E00121BD
:103B00000846FDF79BFC3648007800B160E00022D3
:103B100039493A48FEF792FA2E48FDF741FA3648FD
:103B200040780A2190FBF1F201FB1200C4B200239D
:103B3000052221462748FFF759FE2F4840780A21E1
:103B400090FBF1F090FBF1F201FB1200C4B20023F4
:103B5000042221461F48FFF749FE002303220D21BE
:103B60001C48FFF743FE244800780A2190FBF1F23D
:103B700001FB1200C4B20023022221461548FFF7C0
:103B800035FE1D4800780A2190FBF1F090FBF1F220
:103B900001FB1200C4B20023012221460D48FFF7A9
:103BA00025FE0C48FDF72CFB0D48007800B10FE016
:103BB00001210846FDF742FC0AE000F0C3F807E0E7
:103BC000022000F01DF803E0032000F019F800BF08
:103BD00000BFAEE6D800002020A10700003C024054
:103BE0004800002084000020000020414400002004
:103BF0004C000020500000206C0000201401002028
:103C00002DE9F0410546022D01D149480468032DF4
:103C100001D14848046800264748FDF7C1F985E00E
:103C20000A20B4FBF0F100FB1147002305223946BE
:103C30004148FFF7DBFD0A20B4FBF0F00A21B0FB9E
:103C4000F1F201FB12070023042239463A48FFF73C
:103C5000CDFD6420B4FBF0F00A21B0FBF1F201FBD2
:103C600012070023032239463348FFF7BFFD4FF404
:103C70007A70B4FBF0F00A21B0FBF1F201FB1207FD
:103C80000023022239462C48FFF7B0FD012304220D
:103C90000A212948FFF7AAFD012302220B21264809
:103CA000FFF7A4FD012303220B212348FFF79EFD0C
:103CB000012304220B212048FFF798FD0123052250
:103CC0000B211D48FFF792FD1B48FDF799FA1B4891
:103CD000007860B9022D01D115480460032D01D18F
:103CE00014480460002016490870BDE8F0811348AC
:103CF0000078012807D104201049087042F21070A2
:103D0000844200D20A340D480078022805D10420EC
:103D10000A4908700A2C00D90A3C41F288308642D0
:103D200003D9002006490870DFE7761C78E7000019
:103D30004C00002050000020D80000204900002046
:103D40004800002070B50020FE490870FE48FDF7CD
:103D500027F9FE4880780A2190FBF1F201FB12005E
:103D6000C5B2002305222946F748FFF73FFDF74873
:103D700080780A2190FBF1F090FBF1F201FB120038
:103D8000C5B2002304222946EF48FFF72FFDEF4874
:103D900040780A2190FBF1F201FB1200C5B200232A
:103DA00003222946E848FFF721FDE84840780A2128
:103DB00090FBF1F090FBF1F201FB1200C5B2002381
:103DC00002222946E048FFF711FD012303220A21C0
:103DD000DD48FFF70BFDDD4800780A2190FBF1F28A
:103DE00001FB1200C5B2002301222946D648FFF785
:103DF000FDFCD64800780A2190FBF1F090FBF1F22F
:103E000001FB1200C5B200231A462946CE48FFF72F
:103E1000EDFC01231A460A21CB48FFF7E7FCCA480C
:103E2000FDF7EEF9002457E0C948007801280CD1CD
:103E3000C6488078401C3C2190FBF1F201FB120047
:103E4000C24988700320C2490870C148007802281E
:103E50000CD1BE4880783B303C2190FBF1F201FB55
:103E60001200BA4988700320B9490870B7488078B1
:103E70000A2190FBF1F201FB1200C5B200230522DA
:103E80002946B148FFF7B2FCB04880780A2190FB80
:103E9000F1F090FBF1F201FB1200C5B20023042205
:103EA0002946A948FFF7A2FC012305220B21A648B9
:103EB000FFF79CFC012304220B21A348FFF796FC8B
:103EC000A148FDF79DF941F28830844203D90020D2
:103ED0009C49087070BD641C9D4800780028A3D1DF
:103EE0009A4880780A2190FBF1F201FB1200C5B2DA
:103EF0000023052229469448FFF778FC93488078F0
:103F00000A2190FBF1F090FBF1F201FB1200C5B227
:103F10000023042229468C48FFF768FC03208C49C3
:103F2000087000245DE08A48007801280CD1874899
:103F30004078401C3C2190FBF1F201FB12008349C8
:103F400048700320824908708148007802280CD10B
:103F50007E4840783B303C2190FBF1F201FB12009F
:103F60007A49487003207A490870784840780A21D5
:103F700090FBF1F201FB1200C5B200230322294697
:103F80007148FFF733FC714840780A2190FBF1F04B
:103F900090FBF1F201FB1200C5B200230222294678
:103FA0006948FFF723FC012303220B216648FFF732
:103FB0001DFC012303220A216348FFF717FC01239C
:103FC00002220B216048FFF711FC5F48FDF718F94A
:103FD00041F28830844203D900205A49087079E7B9
:103FE000641C5B48007800289DD1584840780A211D
:103FF00090FBF1F201FB1200C5B200230322294617
:104000005148FFF7F3FB514840780A2190FBF1F04B
:1040100090FBF1F201FB1200C5B2002302222946F7
:104020004948FFF7E3FB012303220A214648FFF733
:10403000DDFB03204649087000245DE04448007819
:1040400001280CD141480078401C182190FBF1F266
:1040500001FB12003D49087003203D4908703C48AF
:10406000007802280CD1394800781730182190FBCD
:10407000F1F201FB12003549087003203449087041
:10408000324800780A2190FBF1F201FB1200C5B220
:104090000023012229462C48FFF7A8FB2B48007873
:1040A0000A2190FBF1F090FBF1F201FB1200C5B286
:1040B00000231A4629462448FFF798FB01231A4695
:1040C0000B212148FFF792FB01231A460A211E48C3
:1040D000FFF78CFB012300220B211B48FFF786FB17
:1040E0001948FDF78DF841F28830844203D9002049
:1040F00014490870EEE6641C1548007800289DD12C
:10410000124800780A2190FBF1F201FB1200C5B2BF
:104110000023012229460C48FFF768FB0B48007872
:104120000A2190FBF1F090FBF1F201FB1200C5B205
:1041300000231A4629460448FFF758FB0248FDF7BA
:104140005FF807E048000020D80000206C00002045
:1041500049000020002204490448FEF785F80020A9
:104160000349087000BFB5E66C0000201401002070
:1041700048000020030406080C101820300000003E
:104180000000000000010203040607080900000007
:104190000001020304000000B841000800000020F4
:1041A0006C00000000320008244200086C0000206F
:1041B00004050000103200080000000000000000AC
:1041C00000000000000000000000000000000000EF
:1041D00000000000000000000000000000000000DF
:1041E00000000000000000000000000000000000CF
:1041F00000000000000000000000000000000000BF
:1042000000000000781E0000841C00000100000077
:10421000000000000000000010000000010000008D
:0442200068FF1F0014
:04000005080000F5FA
:00000001FF
